{
    "contractName": "SimpleStorage",
    "abi": [
        {
            "inputs": [],
            "name": "read",
            "outputs": [
                {
                    "internalType": "uint256",
                    "name": "",
                    "type": "uint256"
                }
            ],
            "stateMutability": "view",
            "type": "function"
        },
        {
            "inputs": [
                {
                    "internalType": "uint256",
                    "name": "newValue",
                    "type": "uint256"
                }
            ],
            "name": "write",
            "outputs": [],
            "stateMutability": "nonpayable",
            "type": "function"
        }
    ],
    "bytecode": "6080604052348015600f57600080fd5b5060ac8061001e6000396000f3fe6080604052348015600f57600080fd5b506004361060325760003560e01c80632f048afa14603757806357de26a4146049575b600080fd5b60476042366004605e565b600055565b005b60005460405190815260200160405180910390f35b600060208284031215606f57600080fd5b503591905056fea2646970667358221220aed66f8c7b39a234e37e167703e752c6fa084fa72d99369af1634d03dc859a1164736f6c63430008130033",
    "sourcePath": "v:/project-block-chain/buoi5/truffle/contracts/SimpleStorage.sol",
    "compiler": {
        "name": "solc",
        "version": "0.8.19+commit.7dd6d404"
    },
    "functionHashes": {
        "read()": "57de26a4",
        "write(uint256)": "2f048afa"
    },
    "gasEstimates": {
        "creation": {
            "codeDepositCost": "34400",
            "executionCost": "87",
            "totalCost": "34487"
        },
        "external": {
            "read()": "2268",
            "write(uint256)": "22290"
        }
    }
}